:020000040800F2
:100000009804002035010008271000082D0F000873
:1000100025100008ED0100089910000800000000FC
:100020000000000000000000000000002B1000088D
:10003000EF01000800000000291000082D10000842
:100040004F0100084F0100084F0100084F01000850
:100050004F0100084F0100084F0100084F01000840
:100060004F0100084F0100084F0100084F01000830
:100070004F0100084F0100084F0100084F01000820
:100080004F0100084F0100084F0100080000000068
:100090000000000000000000000000004F01000808
:1000A0004F0100084F0100084F0100084F010008F0
:1000B0004F0100084F0100084F0100084F010008E0
:1000C0004F0100084F0100084F0100084F010008D0
:1000D0004F0100084F0100084F0100084F010008C0
:1000E0004F0100084F0100084F0100080000000008
:1000F0000000000000000000000000000000000000
:1001000000000000000000000000000000000000EF
:1001100000000000000000004F0100084F0100082F
:10012000DFF80CD000F02AF800480047D91000088A
:10013000980400200648804706480047FEE7FEE78F
:10014000FEE7FEE7FEE7FEE7FEE7FEE7FEE7FEE787
:100150009710000821010008D2B201E000F8012B3D
:10016000491EFBD270470022F6E710B513460A4637
:1001700004461946FFF7F0FF204610BD064C074D18
:1001800006E0E06840F0010394E807009847103467
:10019000AC42F6D3FFF7C8FF7C1100089C110008A1
:1001A00070B5044600688168C943C9071CD18168DD
:1001B00021F00101816000F067FA05460FE000BF01
:1001C00000F062FA401B022809D9A06A40F0100032
:1001D000A062E06A40F00100E062012070BD20688A
:1001E0008068C043C007EBD0002070BDFEE77047B9
:1001F000F8B50024009490F824202546012A12D056
:10020000012280F824204A681F23072A0DD206689D
:10021000776B521E02EB820293409F430B68934020
:100220001F43776319E00220F8BD06680D2A0AD241
:10023000376BD21F02EB820293409F430B689340BF
:100240001F43376309E0F76A0D3A02EB82029340DD
:100250009F430B6893401F43F7620A6807230668B1
:100260000A2A0AD3F7680A3A02EB420293409F43F4
:100270008B6893401F43F76008E0376902EB420246
:1002800093409F438B6893401F4337610A68102A4D
:1002900001D0112A20D1124B02689A4217D19368DB
:1002A0001B0219D4936843F4000393600968102972
:1002B00012D10C490C4A0968B1FBF2F101EB810142
:1002C000490000E0491E00910029FBD104E0816A49
:1002D00041F020018162012480F824502046F8BDBD
:1002E000002401400C00002040420F002DE9F041A5
:1002F0004FF0000704003D467ED0A06A002628B9D2
:10030000E66284F82460204600F07EF82046FFF77D
:1003100047FFA16A01F01001014304D0A06A40F038
:100320001000A06268E0A16A21F4885141F0020146
:10033000A1626268E169237B0A4347EA43010A43F9
:10034000A1684FF48077B94208D0012906D0002176
:1003500094F814C0BCF1010F02D00AE03946F7E767
:10036000F3B1A36A43F02003A362E36A43F00103FD
:10037000E3622368D3F804C02CF4694C4CEA010C06
:10038000C3F804C023689968DFF870C001EA0C0163
:1003900011439960A168B9420BD0012909D00CE042
:1003A000DFF85CC0A3690CEB43330B4343F40061FB
:1003B000DFE7218A0D05A5F580152168CB6A23F4B6
:1003C00070032B43CB62216889680E4B1940914220
:1003D00008D1E662A16A21F0020141F00101A162A7
:1003E000BDE8F081A06A20F0020040F01000A06299
:1003F000E06A40F00100E0620120F1E7FDF7E1FF73
:1004000000E0FFFFFE0E1FFF00B585B00021009148
:1004100001910291039100680E49884218D10E485B
:10042000816941F400718161816901F40071049175
:10043000816941F0040181618069694600F004002E
:1004400004906020009003200190044800F01AF806
:1004500005B000BD0024014000100240000801402A
:1004600070B5044600F010F90546601C02D004483F
:100470000078044400F008F9401BA042FAD370BD94
:10048000000000202DE9F84FDFF8B891002409F1B1
:10049000040A0AF1040B23460F270BF1040EC9E0EE
:1004A0000125A5402A40AA427DD1674ED1F804C05B
:1004B000ACEB0608B44532D014DCBCF1030F3AD0E3
:1004C00009DCBCF1000F2AD0BCF1010F1CD0BCF13B
:1004D000020F31D11DE0BCF1110F17D0BCF1120F8A
:1004E0002AD119E0B8F5881F19D006DCB8F5803F8D
:1004F00015D0B8F5801F1FD111E0B8F5001F0ED040
:10050000B8F5041F18D10AE0CB6815E0CB681B1DB5
:1005100012E0CB6808330FE0CB680C330CE08B683B
:100520002BB1012B4FF0080303D0456104E00423F5
:1005300002E0056100E00023FF2A01D8064601E041
:1005400000F104064FEA840501D9A5F12005D6F88B
:10055000008007FA05FC28EA0C0803FA05F548EACA
:100560000508C6F800804D68ED0062D5374DAE69CC
:1005700046F00106AE61AD6924F0030605F0010501
:100580000095334D06EB050CDCF80850A607360F36
:1005900007FA06F825EA0805DFF8B880404503D1D8
:1005A0004FF0000817E044E0DFF8AC80404502D18E
:1005B0004FF001080FE0DFF8A480404502D14FF072
:1005C000020808E0DFF89880404502D14FF00308A8
:1005D00001E04FF0040808FA06F848EA0508CCF8EC
:1005E00008804D68D9F80060ED034D4601D51643EB
:1005F00000E096432E604D68DAF80060AD03554682
:1006000001D5164300E096432E604D68DBF800608C
:10061000ED025D4601D5164300E096432E604D681D
:10062000DEF80060AD02754601D5164300E0964342
:100630002E60641C0D682A46E5407FF431AFBDE8AA
:10064000F88F00000004014000001110001002406B
:100650000000014000080140000C01400010014072
:10066000001401408068084000D001207047C26833
:1006700021EA02030A4043EA0241016170470AB1DC
:10068000016170470904FBE701488068704700007A
:100690000000002070B5040025D094F83D0000252E
:1006A00020B984F83C50204600F0B8F8242084F8A3
:1006B0003D002068016821F00101016020680168A7
:1006C00041F4004101602068016821F400410160AB
:1006D00000F03AFA4D4A6168914201D84C4900E075
:1006E0004C49884201D2012070BD4B492368B0FBC0
:1006F000F1F15E6826F03F060E435E606368934248
:1007000006D94FF4967359434FF47A73B1FBF3F162
:100710002368491C1E6A26F03F063143196261684E
:10072000914210D84900401EB0FBF1F2521CC2F3B6
:100730000B02042A01D2042022E0B0FBF1F0401C9D
:10074000C0F30B001CE0A268F2B301EBC10303EBA2
:100750000116431EB3FBF6F35B1C43F480431B05F9
:1007600049D092B301EBC10202EB0111401EB0FB74
:10077000F1F0401CC0F30B0040F4804040F4004016
:100780002168CA694CF6FF739A431043C861D4E9E3
:10079000071001432068026822F0C0021143016083
:1007A000D4E9030101432068826848F2FF339A4389
:1007B00011438160D4E9050108432168CA6822F029
:1007C000FF021043C86001E00EE016E020680168F7
:1007D00041F0010101602564202084F83D0025637B
:1007E00084F83E50002070BD01EB4106431EB3FB70
:1007F000F6F35B1CB3E70120C2E701EB4101401EA9
:10080000B0FBF1F0401CC0F30B00B7E7A08601007D
:1008100080841E0000093D0040420F0010B586B0E4
:1008200000210091019102910391006810498842D2
:100830001BD1104CA06940F00800A061A069694676
:1008400000F0080004904FF44060009012200190E6
:10085000032003900848FFF715FEE06940F480008C
:10086000E061E06900F48000049006B010BD000073
:100870000058004000100240000C0140024881680E
:1008800002781144816070470000002010B50320F9
:1008900000F066F8002000F005F800F023F80020D2
:1008A00010BD000070B50D4D04464FF47A712878E4
:1008B000B1FBF0F00A490968B1FBF0F000F022FB4F
:1008C00048B9102C07D200222146501E00F028F80B
:1008D00000206C6070BD012070BD00000000002091
:1008E0000C0000200C4808B5816941F001018161CC
:1008F000816901F001010091C16941F08051C1613C
:10090000C06900F0805000900448416821F0E06127
:1009100041F00071416008BD00100240000001403C
:10092000F0B40E4B1B680C46C3F30223C3F107055A
:10093000042D00D90425191D072901D2002300E048
:10094000DB1E012606FA05F1491E214099409E4012
:10095000761E16403143F0BC00F09FBB0CED00E06A
:10096000064900F0070208684FF6FF03184040EA06
:100970000220034A10430860704700000CED00E0BD
:100980000000FA052DE9F84305460078314CC00710
:1009900054D0E0690026C00008D4E06940F08050DF
:1009A000E061E069012600F0805000902A4801686B
:1009B000C90512D40168804641F480710160FFF7D7
:1009C00063FE074605E000BFFFF75EFEC01B64281C
:1009D00023D8D8F80000C005F6D5206A10F440707E
:1009E00021D0A98801F4407181421CD0206A1B49A2
:1009F000012220F440700A6000220A602062C007D1
:100A000011D0FFF741FE074641F2883808E000BFE9
:100A1000FFF73AFEC11B414502D90320BDE8F88328
:100A2000206A8007F4D5206A696820F44070084382
:100A300020621EB1E06920F08050E06128788007D4
:100A400005D56068A96820F4404008436060002034
:100A5000E4E7000000100240007000404004424201
:100A60002DE9F041050027D02868334C810712D5C5
:100A7000400703D5606840F4E060606028780007B4
:100A800003D5606840F4605060606068A96820F039
:100A9000F000084360602878C00729D06868012802
:100AA00004D02168022804D0890703E02168890363
:100AB00000E08901002902DB0120BDE8F0816168C6
:100AC00021F0030101436160FFF7DEFD064641F2BC
:100AD000883706E0FFF7D8FD801BB84201D9032014
:100AE000EBE76068696800F00C00B0EB810FF1D1B2
:100AF0002878400705D56068E96820F4E06008437D
:100B000060602878000706D56068296920F4605085
:100B100040EAC100606000F027F86168074AC1F34D
:100B20000311515CC8400649086006480068FFF799
:100B3000B9FE0020C1E70000001002406411000867
:100B40000C000020040000200448054900684968A2
:100B5000044AC1F30221515CC84070470C000020D8
:100B6000001002407411000813A188B00FC98DE86D
:100B70000F0015A10DF1100C0FC98CE80F00164ADB
:100B80005168164801F00C03042B10D0082B0ED12D
:100B9000C1F38343C9031DF803000AD5D16A04AA2F
:100BA00001F00F01515C0D4A5043B0FBF1F008B069
:100BB00070470B494843FAE7020304050607080992
:100BC0000A0B0C0D0E0F1010010203040506070896
:100BD000090A0B0C0D0E0F100010024000127A00D3
:100BE00000093D002DE9F84F040070D02078C04D79
:100BF000C00749D06868C0F38100012807D0686841
:100C0000C0F38100022809D16868C00306D52868AE
:100C1000800339D560680028E7D035E06068B0F51A
:100C2000803F0BD010B1B0F5A02F11D0286820F470
:100C300080302860286820F4802002E0286840F492
:100C400080302860606890B1FFF71EFD06460AE01C
:100C5000286840F480202860F0E700BFFFF714FD0B
:100C6000801B642873D828688003F7D50CE0FFF751
:100C70000BFD064605E000BFFFF706FD801B64285C
:100C8000F0D828688003F7D420789A4E80074FF078
:100C900001094FF0000839D5686810F00C0F07D033
:100CA0006868C0F38100022809D16868C00306D4CF
:100CB0002868800714D52069012808D110E0206930
:100CC000B0B1C6F80090FFF7DFFC074605E00AE187
:100CD000FFF7DAFCC01B0228C4D828688007F7D5C4
:100CE0002868616920F0F80040EAC10028600DE042
:100CF000C6F80080FFF7C8FC074604E0FFF7C4FC15
:100D0000C01B022823D828688007F7D42078000762
:100D10002CD57948A169D9B1C0F80090FFF7B4FC8F
:100D2000074604E0FFF7B0FCC01B02280FD8686A32
:100D30008007F7D571484FF4FA510068B0FBF1F025
:100D4000009000BF0098411E0091FAD20EE080E0B2
:100D5000C0F80080FFF798FC074604E0FFF794FC1A
:100D6000C01B022875D8686A8007F7D4207840072E
:100D700060D5E8690027C00008D4E86940F08050D9
:100D8000E861E869012700F0805000905C48016844
:100D9000C90513D40168834641F480710160FFF7EF
:100DA00073FC824606E000BFFFF76EFCA0EB0A0072
:100DB00064284ED8DBF80000C005F5D5E0680128AE
:100DC0000AD008B1052813D0286A20F00100286253
:100DD000286A20F0040002E0286A40F0010028623E
:100DE000E06841F2883B98B1FFF74EFC82460BE089
:100DF000286A40F004002862EEE700BFFFF744FCD9
:100E0000A0EB0A0159455AD8286A8007F6D50CE0AC
:100E1000FFF73AFC824605E0FFF736FCA0EB0A013B
:100E200059454CD8286A8007F6D41FB1E86920F0EC
:100E30008050E861E06988B36968C1F381010229E3
:100E400044D00228C6F8608004D0FFF71DFC044699
:100E500038E034E0FFF718FC074604E0FFF714FC25
:100E6000C01B02282BD828688001F7D4206AB0F56F
:100E7000803F05D1E86AA16820F00F000843E862CE
:100E8000D4E908010843696821F4741108436860D3
:100E9000C6F86090FFF7F8FB044606E025E000BFC7
:100EA000FFF7F2FB001B022809D828688001F7D55C
:100EB0001BE000BFFFF7E8FB001B022802D903205C
:100EC000BDE8F88F28688001F4D40EE00128F7D03F
:100ED0006868226A00F48031914204D1616A00F4AA
:100EE0007010884201D00120EAE70020E8E7000006
:100EF0000010024000004242800442420C000020E8
:100F00000070004010B5401EB0F1807F01D3012079
:100F100010BD4FF0E02460610F21601700F0BDF8B4
:100F20000020A06107202061002010BDFEE7000026
:100F30003EB5002411480094019402940E49846047
:100F4000016004730475012505614FF4602144605C
:100F5000C161FFF7CBF908B172B6FEE70520CDE914
:100F60000005694602940548FFF742F9002801D0C0
:100F700072B6FEE73EBD00000024014010000020D4
:100F800070B586B000242448009401940294039420
:100F9000816941F010018161816901F010010491C2
:100FA000816941F020018161816901F02001049192
:100FB000816941F004018161816901F004010491BA
:100FC000816941F0080181618069144E00F00800D8
:100FD0004FF460750490002229463046FFF74FFB1E
:100FE0008120CDE9000469460D480294FFF74AFAD2
:100FF0004020CDE90004694630460294FFF742FAEA
:1010000001200095CDE90104022003906946304695
:10101000FFF738FA06B070BD001002400010014022
:1010200000080140FEE7FEE770477047FFF726BC67
:1010300030B593B028216846FFF795F814210AA827
:10104000FFF791F8002401200F94022504900095E9
:10105000102011940590109407946846FFF7C2FD84
:1010600008B172B6FEE70F20CDE90A040C940D9486
:1010700000210AA80E94FFF7F3FC08B172B6FEE750
:101080000FA80F951194FFF77DFC002801D072B6D0
:10109000FEE713B030BD7047FEE70907090E0028D0
:1010A00004DB00F1E02080F80014704700F00F002E
:1010B00000F1E02080F8141D704702E008C8121FFC
:1010C00008C1002AFAD170477047002001E001C131
:1010D000121F002AFBD17047FFF7D8FBFFF7A8FFCC
:1010E000FFF74EFFFFF724FF1A4819494FF48042DB
:1010F00001601949416000218160C0E9031241612A
:101100008161C1610162FFF7C5FA08B172B6FEE7FD
:10111000124C002280212046FFF7B1FA104E4FF406
:101120002F7540212046FFF79DFA20B1042130465B
:10113000FFF798FAF5E780212046FFF798FA28464E
:10114000FFF78EF980212046FFF791FAE9E70000CA
:101150000058004040000020A0860100001001401F
:10116000000C014000000000000000000102030428
:101170000607080900000000010203049C11000892
:101180000000002010000000BA100008AC11000898
:101190001000002088040000CA10000801000000B0
:0C11A00010000000000000000024F4001B
:0400000508000121CD
:00000001FF
