:020000040800F2
:10000000E004002035010008972300089B19000830
:1000100095230008E1020008912500080000000077
:100020000000000000000000000000009B2300080A
:10003000E302000800000000992300089D23000847
:100040004F0100084F0100084F0100084F01000850
:100050004F0100084F0100084F0100084F01000840
:100060004F0100084F0100084F0100084F01000830
:100070004F0100084F0100084F0100084F01000820
:100080004F0100084F0100084F0100080000000068
:100090000000000000000000000000004F01000808
:1000A0004F0100084F0100084F0100084F010008F0
:1000B0004F0100084F0100084F0100084F010008E0
:1000C0004F010008A91900089D1900084F010008F8
:1000D0004F0100084F0100084F0100084F010008C0
:1000E0004F0100084F0100084F0100080000000008
:1000F0000000000000000000000000000000000000
:1001000000000000000000000000000000000000EF
:1001100000000000000000004F0100084F0100082F
:10012000DFF80CD000F048F8004800475D270008D1
:10013000E00400200648804706480047FEE7FEE747
:10014000FEE7FEE7FEE7FEE7FEE7FEE7FEE7FEE787
:100150000F24000821010008D2B201E000F8012BB1
:10016000491EFBD270470022F6E710B513460A4637
:1001700004461946FFF7F0FF204610BD421C10F858
:10018000011B0029FBD1801A704730B50B46014690
:1001900000202022012409E021FA02F59D4205D326
:1001A00003FA02F5491B04FA02F52844151EA2F1D0
:1001B0000102F1DC30BD0000064C074D06E0E068AE
:1001C00040F0010394E8070098471034AC42F6D39E
:1001D000FFF7AAFF44290008642900080EB505208E
:1001E00000900120019002906946044800F07AF8DE
:1001F000002801D072B6FEE70EBD000018000020F6
:100200000EB5062000900120019002906946044836
:1002100000F068F8002801D072B6FEE70EBD0000BD
:100220001800002070B5044600688168C943C907FA
:100230001CD1816821F00101816000F0E1FB0546DD
:100240000FE000BF00F0DCFB401B022809D9A06AC8
:1002500040F01000A062E06A40F00100E06201207E
:1002600070BD20688068C043C007EBD0002070BD1F
:10027000F8B500260446009600688168C943C9079E
:1002800028D0816841F0010181601348134900685A
:10029000B0FBF1F000E0401E00900028FBD100F020
:1002A000AFFB054611E000BF00F0AAFB401B02288F
:1002B0000BD9A06A40F01000A062E06A40F0010093
:1002C000E06284F824600120F8BD20688068C043A3
:1002D000C007E9D10020F8BD1400002040420F0003
:1002E000FEE77047F8B50024009490F824202546D6
:1002F000012A12D0012280F824204A681F23072AED
:100300000DD20668776B521E02EB820293409F4328
:100310000B6893401F43776319E00220F8BD06681D
:100320000D2A0AD2376BD21F02EB820293409F4301
:100330000B6893401F43376309E0F76A0D3A02EBFD
:10034000820293409F430B6893401F43F7620A6801
:10035000072306680A2A0AD3F7680A3A02EB420220
:1003600093409F438B6893401F43F76008E03769D1
:1003700002EB420293409F438B6893401F433761D7
:100380000A68102A01D0112A20D1124B02689A4221
:1003900017D193681B0219D4936843F40003936048
:1003A0000968102912D10C490C4A0968B1FBF2F115
:1003B00001EB8101490000E0491E00910029FBD1B9
:1003C00004E0816A41F020018162012480F8245018
:1003D0002046F8BD002401401400002040420F00D8
:1003E0000068C06C704700002DE9F0414FF0000735
:1003F00004003D467ED0A06A002628B9E66284F853
:100400002460204600F07EF82046FFF70BFFA16A2B
:10041000C90600D420B1A06A40F01000A06269E0D3
:10042000A16A21F4885141F00201A1626268E16988
:10043000237B0A4347EA43010A43A1684FF48077CC
:10044000B94209D0012907D05FF0000194F814C027
:10045000BCF1010F02D00AE03946F7E7F3B1A36A15
:1004600043F02003A362E36A43F00103E3622368DD
:10047000D3F804C02CF4694C4CEA010CC3F804C056
:1004800021688B68DFF870C003EA0C0313438B60AC
:10049000A168B9420BD0012909D00CE0DFF85CC09B
:1004A000A3690CEB43330B4343F40061DFE7218A7C
:1004B0000D05A5F580152168CB6A23F470032B4345
:1004C000CB62216889680E4B1940914208D1E662DF
:1004D000A16A21F0020141F00101A162BDE8F081B1
:1004E000A06A20F0020040F01000A062E06A40F034
:1004F0000100E0620120F1E7FDF7E1FF00E0FFFF0E
:10050000FE0E1FFF00B585B0002100910191029100
:10051000039100680E49884218D10E48816941F460
:1005200000718161816901F400710491816941F078
:10053000040181618069694600F004000490602034
:10054000009003200190044800F064F905B000BD5C
:100550000024014000100240000801402DE9F8434A
:1005600000260D460446009600F04AFA80462068B0
:100570008168C90508D5A06A40F02000A06284F80F
:1005800024600120BDE8F8834168C90503D4C06A2E
:1005900010F4700F26D0022000F02AFE38490968B6
:1005A000B1FBF0F72068036936490B424FEA61015D
:1005B0004FEAA1121BD1C3684FEA611C13EA0C0F6A
:1005C00015D103690B4221D1C06810421ED11420FD
:1005D0001FE0681C06D045B300F012FAA0EB08003B
:1005E000A84222D8206800688007F2D52AE0036973
:1005F0000B4202D1C168114206D0026922490A4267
:1006000006D1C068084203D1542002E0292000E04E
:10061000FC204743009813E0681C0ED02DB100F079
:10062000EFF9A0EB0800A84207D9A06A40F0040047
:10063000A06284F824600320A4E70098401C009086
:10064000B842E9D321686FF012000860A06A40F454
:100650000070A06220688068C0F3424007280CD177
:10066000207B50B9A06A20F48070A062A06AC00408
:1006700003D4A06A40F00100A062002082E70000DD
:1006800014000020244992244992240010B5044605
:1006900090F8240001280DD0012084F82400204681
:1006A000FFF7E6FD01004FF0000005D084F82400BC
:1006B000084610BD022010BDA26A40F201239A43F1
:1006C00042F48072A262A26A22F48012A2622268BC
:1006D00053685B0505D5A36A23F4005343F48053A4
:1006E000A362A36ADB0404D5E36A23F00603E36292
:1006F00000E0E06284F824006FF0020010602068DF
:100700008268C2F34242072A826803D042F4801210
:100710008260CDE742F4A002FAE710B5044690F8F3
:100720002400012807D0012084F824002046FFF788
:1007300079FD10B107E0022010BDA16A21F48851B3
:1007400041F00101A162002184F8241010BD0000D5
:1007500010B590F821100024022903D004218163F0
:1007600001243DE001680A6822F00E020A60016877
:100770000A6822F001020A601A4A0168914201D116
:10078000012121E0174A1432914201D110211BE0CE
:10079000144A2832914201D1891515E0114A3C32A0
:1007A000914201D189140FE00E4A5032914202D198
:1007B0004FF4803108E00B4A6432914202D14FF489
:1007C000801101E04FF08071064A083A5160012122
:1007D00080F82110002180F82010416B01B188477A
:1007E000204610BD0800024090F82100704700002C
:1007F00070B5044600F004F90546601C02D00448B8
:100800000078044400F0FCF8401BA042FAD370BD0D
:10081000080000202DE9F84FDFF8B891002409F115
:10082000040A0AF1040B23460F270BF1040EC9E05A
:100830000125A5402A40AA427DD1674ED1F804C0C7
:10084000ACEB0608B44532D014DCBCF1030F3AD04F
:1008500009DCBCF1000F2AD0BCF1010F1CD0BCF1A7
:10086000020F31D11DE0BCF1110F17D0BCF1120FF6
:100870002AD119E0B8F5881F19D006DCB8F5803FF9
:1008800015D0B8F5801F1FD111E0B8F5001F0ED0AC
:10089000B8F5041F18D10AE0CB6815E0CB681B1D22
:1008A00012E0CB6808330FE0CB680C330CE08B68A8
:1008B0002BB1012B4FF0080303D0456104E0042362
:1008C00002E0056100E00023FF2A01D8064601E0AE
:1008D00000F104064FEA840501D9A5F12005D6F8F8
:1008E000008007FA05FC28EA0C0803FA05F548EA37
:1008F0000508C6F800804D68ED0062D5374DAE6939
:1009000046F00106AE61AD6924F0030605F001056D
:100910000095334D06EB050CDCF80850A607360FA2
:1009200007FA06F825EA0805DFF8B880404503D144
:100930004FF0000817E044E0DFF8AC80404502D1FA
:100940004FF001080FE0DFF8A480404502D14FF0DE
:10095000020808E0DFF89880404502D14FF0030814
:1009600001E04FF0040808FA06F848EA0508CCF858
:1009700008804D68D9F80060ED034D4601D5164357
:1009800000E096432E604D68DAF80060AD035546EE
:1009900001D5164300E096432E604D68DBF80060F9
:1009A000ED025D4601D5164300E096432E604D688A
:1009B000DEF80060AD02754601D5164300E09643AF
:1009C0002E60641C0D682A46E5407FF431AFBDE817
:1009D000F88F0000000401400000111000100240D8
:1009E0000000014000080140000C014000100140DF
:1009F000001401400AB1016170470904FBE70000DF
:100A0000014880687047000008000020704700001F
:100A100010B559B1012914D10423012209490A480A
:100A200000F0E0FA00280CD072B6FEE7054920235A
:100A30000122491C044800F00FFB002801D072B6C7
:100A4000FEE710BD01000020480000202DE9F04124
:100A5000016804464A694E6890F83E000025D74375
:100A6000FA050BD4F243D20508D46FF48072012545
:100A70004A6121680A6842F400420A60B90508D454
:100A8000F143C90505D422686FF4007145F00205F1
:100A90005161790525D4F143C90522D4638D94F8B9
:100AA0003D10226B202808D13BB9212910D02929DB
:100AB0000ED0282901D1212A0AD022686FF4806142
:100AC000516145F00405102806D0402804D008E004
:100AD000204601F02FFB04E02068016841F400711A
:100AE0000160380508D4F043C00505D421686FF4CF
:100AF000006045F008054861002D07D0206C2843B0
:100B000020642046BDE8F04100F0B2BFBDE8F081AE
:100B10002DE9F041026800245168C76A90F83E5000
:100B200090F83D60102D1CD0402D1AD0036C002B86
:100B30007ED053694FF02805DB439F0779D4CF431C
:100B4000BF0576D4016C01B1946990F83D30002165
:100B50009D430B466ED0C91E516180F83C30BDE804
:100B6000F081946953694FF42A0CDB435FEAC37E3A
:100B70004FF02A4604D06745F1D0B742EFD010E0DD
:100B8000CF43BF050DD4C16A614501D1012103E006
:100B9000C16AB14201D10821C162BDE8F04101F052
:100BA00033BA1E0716D4CE43B60513D4416CC9B26E
:100BB0001161416B11B9826B002AD0D0896A19B9D1
:100BC000816B896A0029CAD00068416841F40061DC
:100BD0004160C4E79E0706D4CE43B60503D4BDE802
:100BE000F04101F065B9E443526864074FEA0252EC
:100BF0001BD4002AB3DB1A0608D4CA43520505D415
:100C00005A0705D5BDE8F04101F0F6B85A07A6D459
:100C1000C9438905A3D4102D03D0BDE8F04101F0EC
:100C200039BABDE8F04101F0ADB8002A97DB02E027
:100C300015E029E015E05A0608D4CA43520505D448
:100C40005A0705D5BDE8F04101F028B85A0786D407
:100C5000C943890583D4BDE8F04100F0B5BF94696C
:100C600067E7556825F480655560E243540700D571
:100C70000121120601D5828900E0028B80F83C3008
:100C800092B2FFF7C5FE6AE7DC0606D4CC43A405A2
:100C900003D4BDE8F04101F08FBA212E27D0292ED0
:100CA00025D05C0655D4CC43640552D45B0752D59D
:100CB00090F83D10438D002B8BD01269436A1A7057
:100CC000426A521C4262428D521E4285428D002A67
:100CD000D9D12A29D7D101684A6822F480624A60B2
:100CE0002221016380F83D5000F05EF937E71C06D1
:100CF00023D4CC43640520D45B0720D590F83D1065
:100D0000438D002BBFD0436A1B781361426A521C8B
:100D10004262428D521E4285428D002AB3D129295A
:100D2000B1D101684A6822F480624A6021210163DE
:100D300080F83D5000F050F911E75B07A3D4C94398
:100D40008905A0D4418D00299DD0416A097811619F
:100D50000AE05B0797D4C943890594D4418D0029E3
:100D600091D01169426A1170416A491C4162418DFA
:100D7000491E4185F3E690F83D10202901D002205C
:100D80007047282180F83D1001680A68D20703D116
:100D90000A6842F001020A6001680A6842F480624F
:100DA0000A600068416841F440714160002070476A
:100DB0007047000070B5040025D094F83D00002570
:100DC00020B984F83C50204600F0BEF8242084F876
:100DD0003D002068016821F0010101602068016880
:100DE00041F4004101602068016821F40041016084
:100DF00000F00EFB4D4A6168914201D84C4900E079
:100E00004C49884201D2012070BD4B492368B0FB98
:100E1000F1F15E6826F03F060E435E606368934220
:100E200006D94FF4967359434FF47A73B1FBF3F13B
:100E30002368491C1E6A26F03F0631431962616827
:100E4000914210D84900401EB0FBF1F2521CC2F38F
:100E50000B02042A01D2042022E0B0FBF1F0401C76
:100E6000C0F30B001CE0A268F2B301EBC10303EB7B
:100E70000116431EB3FBF6F35B1C43F480431B05D2
:100E800049D092B301EBC10202EB0111401EB0FB4D
:100E9000F1F0401CC0F30B0040F4804040F40040EF
:100EA0002168CA694CF6FF739A431043C861D4E9BC
:100EB000071001432068026822F0C002114301605C
:100EC000D4E9030101432068826848F2FF339A4362
:100ED00011438160D4E9050108432168CA6822F002
:100EE000FF021043C86001E00EE016E020680168D0
:100EF00041F0010101602564202084F83D00256354
:100F000084F83E50002070BD01EB4106431EB3FB48
:100F1000F6F35B1CB3E70120C2E701EB4101401E81
:100F2000B0FBF1F0401CC0F30B00B7E7A086010056
:100F300080841E0000093D0040420F00FFF71BBFE8
:100F4000704770477047704710B586B00021009118
:100F50000191029103910068104988421BD1104C05
:100F6000A06940F00800A061A069694600F008008F
:100F700004904FF4406000901220019003200390F1
:100F80000848FFF747FCE06940F48000E061E06951
:100F900000F48000049006B010BD0000005800402E
:100FA00000100240000C01400A4842780021062A45
:100FB0000AD2DFE802F0090503080B0D022200E067
:100FC0000122027000E00170417070470322F8E7CF
:100FD0000422F6E7000000200149002088707047D5
:100FE0000000002038B590F83D502824AC4331D1A2
:100FF00061B15AB190F83C40012C2BD0012480F80B
:101000003C4004682568ED0702D005E0012038BDAA
:10101000256845F0010525600468256825F400650C
:1010200025602A2480F83D40202480F83E4000249A
:10103000046441624285418D0185C36201684A6949
:101040008A69009280F83C40486840F4E06048605B
:10105000204638BD022038BD38B590F83D502824D0
:10106000AC4331D161B15AB190F83C40012C2BD046
:10107000012480F83C4004682568ED0702D005E0B3
:10108000012038BD256845F0010525600468256804
:1010900025F400652560292480F83D40202480F84F
:1010A0003E400024046441624285418D0185C36253
:1010B00001684A698A69009280F83C40486840F4B7
:1010C000E0604860204638BD022038BD0248816893
:1010D00002781144816070470800002010B5032099
:1010E00000F074F8002000F005F800F023F800206C
:1010F00010BD000070B50D4D04464FF47A7128788C
:10110000B1FBF0F00A490968B1FBF0F000F06EFBAA
:1011100048B9102C07D200222146501E00F036F8A4
:1011200000206C6070BD012070BD00000800002030
:10113000140000200C4808B5816941F0010181616B
:10114000816901F001010091C16941F08051C161E3
:10115000C06900F0805000900448416821F0E061CF
:1011600041F00071416008BD0010024000000140E4
:10117000002809DB00F01F02012191404009800096
:1011800000F1E020C0F8001170470000F0B40E4BF1
:101190001B680C46C3F30223C3F10705042D00D9D5
:1011A0000425191D072901D2002300E0DB1E0126BA
:1011B00006FA05F1491E214099409E40761E1640D0
:1011C0003143F0BC01F0FAB90CED00E0064900F043
:1011D000070208684FF6FF03184040EA0220034A5E
:1011E00010430860704700000CED00E00000FA05B5
:1011F00010B501460020144C01290BD0022908D15A
:1012000000F016F96168C1F38131491C4900B0FB57
:10121000F1F010BD226AC2F30121012903D1920726
:1012200001D5C80310BD022905D1626A920702D513
:1012300049F6404010BD0329FCD121688903F9D546
:101240004FF2244010BD0000001002402DE9F84389
:1012500005460078314CC00754D0E0690026C00034
:1012600008D4E06940F08050E061E069012600F0B8
:10127000805000902A480168C90512D40168804650
:1012800041F480710160FFF7BBFB074605E000BF3A
:10129000FFF7B6FBC01B642823D8D8F80000C005B0
:1012A000F6D5206A10F4407021D0A98801F440716D
:1012B00081421CD0206A1B49012220F440700A6040
:1012C00000220A602062C00711D0FFF799FB074691
:1012D00041F2883808E000BFFFF792FBC11B41458F
:1012E00002D90320BDE8F883206A8007F4D5206A7C
:1012F000696820F44070084320621EB1E06920F064
:101300008050E0612878800705D56068A96820F4DE
:101310004040084360600020E4E700000010024005
:1013200000700040400442422DE9F041050027D002
:101330002868334C810712D5400703D5606840F414
:10134000E06060602878000703D5606840F4605072
:1013500060606068A96820F0F00008436060287849
:10136000C00729D06868012804D02168022804D069
:10137000890703E02168890300E08901002902DB75
:101380000120BDE8F081616821F003010143616043
:10139000FFF736FB064641F2883706E0FFF730FBE1
:1013A000801BB84201D90320EBE76068696800F050
:1013B0000C00B0EB810FF1D12878400705D56068AB
:1013C000E96820F4E060084360602878000706D5EB
:1013D0006068296920F4605040EAC100606000F054
:1013E00037F86168074AC1F30311515CC8400649E8
:1013F000086006480068FFF77DFE0020C1E7000096
:10140000001002402C290008140000200C000020CD
:101410000448054900684968044AC1F30221515C47
:10142000C840704714000020001002403C2900080A
:101430000448054900684968044AC1F3C221515C67
:10144000C840704714000020001002403C290008EA
:1014500013A188B00FC98DE80F0015A10DF1100C74
:101460000FC98CE80F00164A5168164801F00C03AA
:10147000042B10D0082B0ED1C1F38343C9031DF8F0
:1014800003000AD5D16A04AA01F00F01515C0D4A8C
:101490005043B0FBF1F008B070470B494843FAE7FE
:1014A00002030405060708090A0B0C0D0E0F1010A5
:1014B0000102030405060708090A0B0C0D0E0F10A4
:1014C0000010024000127A0000093D002DE9F84F9B
:1014D000040070D02078C04DC00749D06868C0F3C0
:1014E0008100012807D06868C0F38100022809D173
:1014F0006868C00306D52868800339D5606800286D
:10150000E7D035E06068B0F5803F0BD010B1B0F5A2
:10151000A02F11D0286820F480302860286820F49B
:10152000802002E0286840F480302860606890B134
:10153000FFF766FA06460AE0286840F48020286033
:10154000F0E700BFFFF75CFA801B642873D82868B7
:101550008003F7D50CE0FFF753FA064605E000BF1D
:10156000FFF74EFA801B6428F0D828688003F7D470
:1015700020789A4E80074FF001094FF0000839D5C6
:10158000686810F00C0F07D06868C0F3810002286B
:1015900009D16868C00306D42868800714D520697B
:1015A000012808D110E02069B0B1C6F80090FFF71B
:1015B00027FA074605E00AE1FFF722FAC01B0228D6
:1015C000C4D828688007F7D52868616920F0F8003A
:1015D00040EAC10028600DE0C6F80080FFF710FA6D
:1015E000074604E0FFF70CFAC01B022823D828683E
:1015F0008007F7D4207800072CD57948A169D9B1A4
:10160000C0F80090FFF7FCF9074604E0FFF7F8F98F
:10161000C01B02280FD8686A8007F7D571484FF4BD
:10162000FA510068B0FBF1F0009000BF0098411E35
:101630000091FAD20EE080E0C0F80080FFF7E0F9F8
:10164000074604E0FFF7DCF9C01B022875D8686A7A
:101650008007F7D42078400760D5E8690027C000EC
:1016600008D4E86940F08050E861E869012700F09B
:10167000805000905C480168C90513D40168834616
:1016800041F480710160FFF7BBF9824606E000BFBC
:10169000FFF7B6F9A0EB0A0064284ED8DBF800008B
:1016A000C005F5D5E06801280AD008B1052813D097
:1016B000286A20F001002862286A20F0040002E075
:1016C000286A40F001002862E06841F2883B98B146
:1016D000FFF796F982460BE0286A40F00400286282
:1016E000EEE700BFFFF78CF9A0EB0A0159455AD885
:1016F000286A8007F6D50CE0FFF782F9824605E0FC
:10170000FFF77EF9A0EB0A0159454CD8286A8007FB
:10171000F6D41FB1E86920F08050E861E06988B331
:101720006968C1F38101022944D00228C6F86080AB
:1017300004D0FFF765F9044638E034E0FFF760F9BC
:10174000074604E0FFF75CF9C01B02282BD8286885
:101750008001F7D4206AB0F5803F05D1E86AA1681E
:1017600020F00F000843E862D4E9080108436968E3
:1017700021F4741108436860C6F86090FFF740F9DF
:10178000044606E025E000BFFFF73AF9001B0228F7
:1017900009D828688001F7D51BE000BFFFF730F9B2
:1017A000001B022802D90320BDE8F88F28688001B9
:1017B000F4D40EE00128F7D06868226A00F4803182
:1017C000914204D1616A00F47010884201D0012076
:1017D000EAE70020E8E70000001002400000424273
:1017E00080044242140000200070004010B5401EEA
:1017F000B0F1807F01D3012010BD4FF0E024606183
:101800000F21601700F0DAFE0020A06107202061A0
:10181000002010BD70B5040004D094F839000025F4
:1018200010B106E0012070BD84F83850204600F069
:1018300023F8242084F839002068C16821F400517D
:10184000C160204600F0E4FD2068016921F4904168
:1018500001612068416921F02A0141612068C16865
:1018600041F40051C160E563202084F8390084F818
:101870003A00002070BD000030B585B0002400940F
:1018800001940294039400681449884223D11448B7
:10189000C16941F40031C161C16901F400310491B1
:1018A000816941F00401816180690E4D00F00400FE
:1018B00004900420009002200190032003906946C8
:1018C0002846FEF7A7FF0820CDE900046946284610
:1018D0000294FEF79FFF05B030BD000000440040B9
:1018E00000100240000801402DE9F843044690F83A
:1018F00039001F4616460D4620284CD1C5B1BEB151
:1019000094F83800012846D0012084F838004FF0C0
:101910000008C4F83C80212084F83900FFF770F8F3
:10192000A6848146E684A068B0F5805F03D004E019
:101930000120BDE8F883206928B12E465FF000053C
:1019400084F838800EE00026FAE78021204600F077
:10195000EDFDA0B9AEB116F8010B21684860E08C2E
:10196000401EE084E08C4B464FF0000200970028B8
:10197000EBD14FF04001204600F0D8FD30B10320FC
:10198000D7E735F8020BC0F30800E6E7202084F81B
:1019900039000020CDE70220CBE7FEE70148FFF742
:1019A00055B80000480000200148FFF7B1B800001A
:1019B0004800002038B5406A002190F83D202B4BAC
:1019C00046F2A8141B68B3FBF4F3C3EBC30303EBA9
:1019D000830300933BB15B1E009303681B689B0568
:1019E00005D5009BF6E7036C43F020030364436BCB
:1019F00003B19962836B03B1996203681C6824F494
:101A000080641C604185436B03B15963836B03B1F0
:101A1000596303681C6824F001041C6090F83D4081
:101A20002023602C0BD0282434EA02020FD080F847
:101A30003D3080F83E1000BFFFF7BAF938BD80F89E
:101A40003D3080F83E100164FEF7E0FF38BD0268CB
:101A5000136843F0010313600268136843F4806362
:101A60001360016380F83D40E6E7000014000020A9
:101A700070B5044690F83D0094F83E10102901D04E
:101A8000402906D1222804D121680A6822F4006284
:101A90000A60282131EA00024FF000054FF02006CD
:101AA00026D021684968090505D4602803D084F848
:101AB0003D6084F83E50256320684168090537D5AC
:101AC000416821F400614160606B3D4990F821203C
:101AD000012A11D04163606BFEF73AFE38B32068EB
:101AE000016821F00101016084F83D60606B1CE039
:101AF000256384F83D10DFE7A06B4163A06BFEF720
:101B000027FEA0B120684169C943490605D4006990
:101B1000616A0870606A401C60622068016821F098
:101B20000101016084F83D60A06B416B884710E0C3
:101B300094F83D10602910D04169C943490605D485
:101B40000069616A0870606A401C60622046FFF7A5
:101B50002FF9206CC1071CD115E084F83D60256485
:101B60004169C943490605D40069616A0870606A21
:101B7000401C60622068016821F00101016020467C
:101B8000FEF744FFE5E7810703D4410701D40007CE
:101B900004D52068416821F4E061416094F83D007B
:101BA000216C49070BD5282809D10648E062256336
:101BB00084F83D6084F83E502046FFF7BFF970BDC1
:101BC000B51900080000FFFF10B5C26A438D016817
:101BD000042B06D0438D032B08D0438D022B1DD040
:101BE00012E04A6822F480624A600CE04B6823F4F9
:101BF00080634B60042A06D0022A04D001680A6878
:101C000022F480620A6001680969426A1170416ABF
:101C1000491C4162418D491E418510BD012A30D0C9
:101C2000102A2ED0042A30D0022A2ED00A6842F47C
:101C300000720A6001680969426A1170416A491CB0
:101C40004162428D521E4285026812690A70416AE1
:101C5000491C4162418D491E418501684A6822F450
:101C600040724A60202180F83D1090F83E2000210B
:101C7000402A80F83E100CD012210163FFF760F972
:101C800010BD0A6822F48062D3E70A6842F48062D9
:101C9000CFE70163FFF756F910BD000038B590F8A3
:101CA0003D10222914D1418D032912D901680969F7
:101CB000426A1170416A491C4162418D491E418549
:101CC000418D032904D10068416821F4806141609D
:101CD00038BDC26A022AFBD0012901D00029F7D100
:101CE000274946F2A81300220968B1FBF3F101EB82
:101CF0008101009101682023009C641E009422D081
:101D00000C68A405F8D40C6824F480640C600168A5
:101D10004C6824F4E0644C6001680969446A2170ED
:101D2000416A491C4162418D491E418580F83D3020
:101D300090F83E1080F83E2040291DD0122101630A
:101D4000FFF7FEF838BD046C44F0200404644C68CE
:101D500024F4E0644C6001680969446A2170416AB6
:101D6000491C4162418D491E418580F83D3080F813
:101D70003E20FFF71DF838BD0263FFF7E3F838BDDA
:101D80001400002010B5C16A90F83D20212A0BD123
:101D9000428D52B1416A026809781161416A491C59
:101DA0004162418D491E418510BD00222023082932
:101DB00010D020290ED011F5803F0BD001684C685F
:101DC00024F4E0644C601121016380F83E2080F827
:101DD0003D300EE001684C6824F4E0644C6001681A
:101DE0000C6844F400740C60026380F83D3080F8A5
:101DF0003E20FFF7A6F810BD10B590F83D1090F802
:101E00003E30C26A048DB4B1212903D0402B11D1D8
:101E100022290FD1418DE1B390F83E10402942D0E4
:101E2000416A026809781161416A491C4162418D29
:101E3000491E418510BD2129E8D120230021082A0F
:101E400013D0202A11D012F5803F0ED002685468BA
:101E500024F4E06454601122026380F83E1080F89C
:101E60003D3000BFFFF76DF810BD0268546824F4E0
:101E7000E06454600268146844F400741460016300
:101E800080F83D3090F83E2080F83E10402AE9D19D
:101E900000E002E0FFF757F810BD0068416821F448
:101EA0008061416010BDBDE8104000F0F3B8000053
:101EB00078B590F83E50C26A046B90F83D600023FC
:101EC0000168222E73D1066D0EB9402D6FD0056DBD
:101ED0001DB90569B5F5404F1BD0458D95B3468DAD
:101EE000484D012E20D0448D022C4DD00C6844F476
:101EF00080640C6001684C68240579D5AA4273D0CF
:101F0000012A71D0082A6FD0102A6DD0202A6BD0F8
:101F10006EE04A698A6900920A6842F480720A6037
:101F2000016D491C016578BDAA4214D10A6822F4EA
:101F300080620A6001684A68120504D50A6822F4C2
:101F4000806217E0FFE74A698A6900920A6842F4F2
:101F500000720A6050E0082A10D0202A0ED0122CFD
:101F60000AD0042A03D0022A01D0102AE6D10A6836
:101F700042F480620A603BE0012ADFD00A6822F462
:101F800080620A600168DEE7042A11D0022A0FD0BD
:101F9000102A0DD00C6844F400640C6001684C6990
:101FA0008C6900940C6824F480640C6008E025E0DF
:101FB0000C6844F480640C6001684C698969009184
:101FC00001684C68240517D5AA4207D0012A05D01C
:101FD000082A03D0102A01D0202A0DD14A6842F4E1
:101FE00080524A6008E0FFE74A6842F480524A6043
:101FF00001684A6989690091036578BD4869886903
:10200000009078BD0000FFFF90F83E10402910D0EE
:102010000169B1F5804F19D0016DA9B3016D012996
:1020200010D1416C5FF0F10201F4407142EAD1112C
:1020300006E0016D0029416C05D0C9B241F00101F3
:1020400000680161704701F0FE01F9E790F83D106A
:102050002129416C09D0C9B241F001010268116126
:10206000416B29B1896A49B902E001F0FE01F5E747
:10207000816B0029E6D0896A0029E3D000684168B5
:1020800041F4006141607047FFE7416CF02201F4C8
:102090004071CBE710B590F83D10026D22B3026D90
:1020A000012A2FD0026D022A1DD1222931D0428D62
:1020B0000AB1212933D0428D002A14D1212912D10D
:1020C00001684A6822F4E0624A6001680A6842F4E2
:1020D00000720A6000210163202280F83D2080F810
:1020E0003E10FEF730FF10BDC16C0129816C02D09B
:1020F000C1F3072108E00268C9B21161016D891CB2
:10210000016510BD816CC9B202681161016D491C85
:10211000F6E70068016841F48071016010BD416A12
:10212000026809781161416A491C4162418D491E6A
:10213000418510BD2DE9F04190F83D40C26A002371
:1021400020261C4F01686FF48065082A01D0202AE0
:1021500001D1282C04D0212C16D04D61BDE8F0818E
:10216000C7624A6822F4E0624A6001684D61016812
:102170000A6822F480620A60036380F83D6080F898
:102180003E30FEF7DBFEE9E7C7622122026380F8FA
:102190003D6080F83E304A6822F4E0624A6001689F
:1021A0004D6101680A6822F480620A60FEF714FF3C
:1021B000D4E700000000FFFFF8B590F83D6004464A
:1021C0000068416821F4E0614160206800254169B0
:1021D0000091016841F0010101602068016821F46B
:1021E0008061016020684168090520D5474F222E93
:1021F00048D02A2E46D0616B096849686185618D97
:1022000019B1216C41F004012164416821F400619D
:102210004160606BFEF7E8FA012808D0606B476305
:10222000606BFEF795FA10B1606B416B8847608D6B
:1022300008B320684169C943490708D40069616A45
:102240000870606A401C6062608D401E6085206876
:102250004169C943490608D40069616A0870606A27
:10226000401C6062608D401E6085608D18B1206CDE
:1022700040F004002064206C00B32046BDE8F84024
:10228000FFF7F6BBA16B096849686185618D19B1DB
:10229000216C41F004012164416821F40061416036
:1022A000A06BFEF7A1FA0128C1D0A06B4763A06B19
:1022B000FEF74EFA0028BAD0A06BB6E72A2E06D158
:1022C0002563282084F83D002046FEF76DFE94F833
:1022D0003D10202028290DD0216B222901D0222E4B
:1022E00007D1256384F83D0084F83E502046FEF770
:1022F0005BFEF8BD0649E162256384F83D0084F881
:102300003E502046FEF71AFEF8BD0000B519000841
:102310000000FFFF70B586B000241C4800940194B3
:1023200002940394816941F010018161816901F097
:1023300010010491816941F020018161816901F0FE
:1023400020010491816941F004018161816901F0FA
:1023500004010491816941F00801816180690C4E9A
:1023600000F008004FF440750490002229463046E2
:10237000FEF740FB01200095CDE901040220039007
:1023800069463046FEF746FA06B070BD00100240BE
:1023900000100140FEE7FEE770477047FEF796BE6B
:1023A00030B593B028216846FDF7DDFE14210AA858
:1023B000FDF7D9FE00240F9401201194009002250E
:1023C000109400040795CDE90104CDE9080468469E
:1023D000FFF77CF808B172B6FEE70F200A90CDE94E
:1023E0000B540D9400210AA80E94FEF79DFF08B12E
:1023F00072B6FEE74FF4804011900F950FA8FEF7DC
:1024000025FF002801D072B6FEE713B030BD70473B
:102410002DE9F041044600680169E26821F4405169
:10242000114301612169A068E269084361691143B0
:1024300022680843D16849F20C6399430143D16093
:1024400020684169A26921F4407111434161364914
:102450002068884202D1FEF7EBFF01E0FEF7D8FFCB
:102460000246E36964203221B3F5004F02EBC20358
:1024700003EB021362682BD09200B3FBF2F5B5FBBD
:10248000F0F5B3FBF2F66FF018077D4306EB850518
:10249000B3FBF2F601EB0515B5FBF0F5B6FBF0F674
:1024A00005F0F00505EB0615B3FBF2F6B3FBF2F20F
:1024B000B2FBF0F27A4306EB820201EB0211B1FBB0
:1024C000F0F000F00F00216828448860BDE8F0813A
:1024D0005200B3FBF2F6B6FBF0F6B3FBF2F7B3FB38
:1024E000F2F56FF0180C06FB0CF607EB860601EB15
:1024F000C606B5FBF0F5B6FBF0F62D0106F0F806C2
:1025000005EB4605B3FBF2F6B3FBF2F2B2FBF0F2D9
:1025100002FB0CF206EB820201EBC201B1FBF0F010
:1025200000F00700CFE70000003801402DE9F0413E
:10253000984617460E460446069D1DE0681C1BD0B3
:102540002DB1FEF75DFAA0EB0800A84214D920686F
:10255000C16821F4D071C1602068416921F0010196
:102560004161202084F8390084F83A00002084F882
:1025700038000320BDE8F0812068006836EA0000DA
:1025800004D00020B842D9D00020F3E70120F9E7B9
:10259000FEE700000FB4084B10B504A902AA039887
:1025A00000F02CF8044602A9002000F0D1F82046E3
:1025B00010BC5DF814FB0000512700080907090E44
:1025C000002804DB00F1E02080F80014704700F0E0
:1025D0000F0000F1E02080F8141D704702E008C8E9
:1025E000121F08C1002AFAD170477047002001E08D
:1025F00001C1121F002AFBD1704700002DE9FF4FD7
:1026000089B09B460446002506E025280BD05A4693
:102610000B999047641C6D1C20780028F5D10DB0F3
:102620002846BDE8F08F0027B8460122474900E060
:10263000074314F8013F203B02FA03F00842F7D1A8
:1026400020782E2819D114F8010F47F004072A2802
:102650000ED06FF02F022078A0F1300109290CD89C
:1026600008EB880102EB410100EB0108641CF2E772
:102670000A98641C50F8048B0A9020780028CED069
:10268000642808D0692806D075281ED05A460B99B0
:1026900090476D1C58E00A994FF00A0901C90A9148
:1026A000002802DA40422D2102E0390504D52B2111
:1026B0008DF82010012103E0F90704D02021F7E76D
:1026C0008A4608AE0DE00021FAE70A994FF00A09A0
:1026D00001C90A91F7E74946FDF757FD303106F881
:1026E000011D0028F7D1ADEB060000F120097807A5
:1026F00001D44FF00108C84502DDA8EB090000E055
:1027000000208046002706E008A85A46C05D0B99C5
:1027100090476D1C7F1C5745F6DB04E030205A467D
:102720000B9990476D1CB8F10001A8F10108F5DC88
:1027300005E016F8010B5A460B9990476D1CB9F14C
:102740000001A9F10109F4DC641C65E70928010016
:102750000A68531C0B601070704700001FB5FEF72D
:10276000BDFCFFF71DFEFFF7D5FD68486649002454
:1027700001604FF4E131C0E901140C21C460C0E9EB
:1027800004418461C461FFF745F808B172B6FEE701
:102790005E485F498438016089158160047304755F
:1027A0004FF460214460C16102210161FDF71CFE0C
:1027B00008B172B6FEE7554856495438016056498B
:1027C000C0E901148021C160C901C0E90414846119
:1027D000C4610462FEF7EEFA08B172B6FEE70022A9
:1027E00011462120FEF7D2FC2120FEF7C1FC002279
:1027F00011462220FEF7CAFC2220FEF7B9FC474D05
:102800006C7042485438FEF7B6FA00940194029472
:102810004FF448774FF47A76039428780028FCD850
:10282000FDF7EEFC39488438FDF730FF3748314674
:102830008438FDF793FE35488438FDF7D1FDA88034
:1028400032488438FDF769FFFDF7C8FC2F4884380B
:10285000FDF71CFF2D4831468438FDF77FFE2B48DD
:102860008438FDF7BDFDE88028488438FDF755FF22
:10287000A888B84204D9E888B84201D2012010E003
:10288000A888B84204D2E888B84201D9042008E0F8
:10289000A888B84204D9E888B84201D9092000E0E4
:1028A0000F20E870E878A870EA881DA16846FFF755
:1028B00071FEAA881AA102A8FFF76CFE6846FDF710
:1028C0005DFC82B2334669461048FFF70DF8334687
:1028D000022214A10D48FFF707F802A8FDF74EFCED
:1028E00082B2334602A90948FEF7FEFF33460222B0
:1028F0000DA10648FEF7F8FF0094019402946420AD
:102900000394FDF775FF88E7004400409C00002019
:102910000024014000580040A08601000000002073
:1029200025640000202000000D0A000000000000C7
:10293000000000000102030406070809000000006F
:1029400001020304642900080000002018000000B0
:10295000DC2500087C29000818000020C8040000BD
:10296000EC2500080000000000000000010000004D
:0C29700010000000000000000024F40033
:0400000508000121CD
:00000001FF
