:020000040800F2
:100000008804002035010008931200081F12000820
:1000100091120008E10200088D14000800000000A1
:10002000000000000000000000000000971200081F
:10003000E302000800000000951200089912000871
:100040004F0100084F0100084F0100084F01000850
:100050004F0100084F0100084F0100084F01000840
:100060004F0100084F0100084F0100084F01000830
:100070004F0100084F0100084F0100084F01000820
:100080004F0100084F0100084F0100080000000068
:100090000000000000000000000000004F01000808
:1000A0004F0100084F0100084F0100084F010008F0
:1000B0004F0100084F0100084F0100084F010008E0
:1000C0004F0100084F0100084F0100084F010008D0
:1000D0004F0100084F0100084F0100084F010008C0
:1000E0004F0100084F0100084F0100080000000008
:1000F0000000000000000000000000000000000000
:1001000000000000000000000000000000000000EF
:1001100000000000000000004F0100084F0100082F
:10012000DFF80CD000F048F80048004759160008E6
:10013000880400200648804706480047FEE7FEE79F
:10014000FEE7FEE7FEE7FEE7FEE7FEE7FEE7FEE787
:100150000B13000821010008D2B201E000F8012BC6
:10016000491EFBD270470022F6E710B513460A4637
:1001700004461946FFF7F0FF204610BD421C10F858
:10018000011B0029FBD1801A704730B50B46014690
:1001900000202022012409E021FA02F59D4205D326
:1001A00003FA02F5491B04FA02F52844151EA2F1D0
:1001B0000102F1DC30BD0000064C074D06E0E068AE
:1001C00040F0010394E8070098471034AC42F6D39E
:1001D000FFF7AAFFA4170008C41700080EB50520F2
:1001E00000900120019002906946044800F07AF8DE
:1001F000002801D072B6FEE70EBD000014000020FA
:100200000EB5062000900120019002906946044836
:1002100000F068F8002801D072B6FEE70EBD0000BD
:100220001400002070B5044600688168C943C907FE
:100230001CD1816821F00101816000F091FB05462D
:100240000FE000BF00F08CFB401B022809D9A06A18
:1002500040F01000A062E06A40F00100E06201207E
:1002600070BD20688068C043C007EBD0002070BD1F
:10027000F8B500260446009600688168C943C9079E
:1002800028D0816841F0010181601348134900685A
:10029000B0FBF1F000E0401E00900028FBD100F020
:1002A0005FFB054611E000BF00F05AFB401B02282F
:1002B0000BD9A06A40F01000A062E06A40F0010093
:1002C000E06284F824600120F8BD20688068C043A3
:1002D000C007E9D10020F8BD1000002040420F0007
:1002E000FEE77047F8B50024009490F824202546D6
:1002F000012A12D0012280F824204A681F23072AED
:100300000DD20668776B521E02EB820293409F4328
:100310000B6893401F43776319E00220F8BD06681D
:100320000D2A0AD2376BD21F02EB820293409F4301
:100330000B6893401F43376309E0F76A0D3A02EBFD
:10034000820293409F430B6893401F43F7620A6801
:10035000072306680A2A0AD3F7680A3A02EB420220
:1003600093409F438B6893401F43F76008E03769D1
:1003700002EB420293409F438B6893401F433761D7
:100380000A68102A01D0112A20D1124B02689A4221
:1003900017D193681B0219D4936843F40003936048
:1003A0000968102912D10C490C4A0968B1FBF2F115
:1003B00001EB8101490000E0491E00910029FBD1B9
:1003C00004E0816A41F020018162012480F8245018
:1003D0002046F8BD002401401000002040420F00DC
:1003E0000068C06C704700002DE9F0414FF0000735
:1003F00004003D467ED0A06A002628B9E66284F853
:100400002460204600F07EF82046FFF70BFFA16A2B
:10041000C90600D420B1A06A40F01000A06269E0D3
:10042000A16A21F4885141F00201A1626268E16988
:10043000237B0A4347EA43010A43A1684FF48077CC
:10044000B94209D0012907D05FF0000194F814C027
:10045000BCF1010F02D00AE03946F7E7F3B1A36A15
:1004600043F02003A362E36A43F00103E3622368DD
:10047000D3F804C02CF4694C4CEA010CC3F804C056
:1004800021688B68DFF870C003EA0C0313438B60AC
:10049000A168B9420BD0012909D00CE0DFF85CC09B
:1004A000A3690CEB43330B4343F40061DFE7218A7C
:1004B0000D05A5F580152168CB6A23F470032B4345
:1004C000CB62216889680E4B1940914208D1E662DF
:1004D000A16A21F0020141F00101A162BDE8F081B1
:1004E000A06A20F0020040F01000A062E06A40F034
:1004F0000100E0620120F1E7FDF7E1FF00E0FFFF0E
:10050000FE0E1FFF00B585B0002100910191029100
:10051000039100680E49884218D10E48816941F460
:1005200000718161816901F400710491816941F078
:10053000040181618069694600F004000490602034
:10054000009003200190044800F014F905B000BDAC
:100550000024014000100240000801402DE9F8434A
:1005600000260D460446009600F0FAF98046206801
:100570008168C90508D5A06A40F02000A06284F80F
:1005800024600120BDE8F8834168C90503D4C06A2E
:1005900010F4700F26D0022000F06CFA3849096878
:1005A000B1FBF0F72068036936490B424FEA61015D
:1005B0004FEAA1121BD1C3684FEA611C13EA0C0F6A
:1005C00015D103690B4221D1C06810421ED11420FD
:1005D0001FE0681C06D045B300F0C2F9A0EB08008C
:1005E000A84222D8206800688007F2D52AE0036973
:1005F0000B4202D1C168114206D0026922490A4267
:1006000006D1C068084203D1542002E0292000E04E
:10061000FC204743009813E0681C0ED02DB100F079
:100620009FF9A0EB0800A84207D9A06A40F0040097
:10063000A06284F824600320A4E70098401C009086
:10064000B842E9D321686FF012000860A06A40F454
:100650000070A06220688068C0F3424007280CD177
:10066000207B50B9A06A20F48070A062A06AC00408
:1006700003D4A06A40F00100A062002082E70000DD
:1006800010000020244992244992240010B5044609
:1006900090F8240001280DD0012084F82400204681
:1006A000FFF7E6FD01004FF0000005D084F82400BC
:1006B000084610BD022010BDA26A40F201239A43F1
:1006C00042F48072A262A26A22F48012A2622268BC
:1006D00053685B0505D5A36A23F4005343F48053A4
:1006E000A362A36ADB0404D5E36A23F00603E36292
:1006F00000E0E06284F824006FF0020010602068DF
:100700008268C2F34242072A826803D042F4801210
:100710008260CDE742F4A002FAE710B5044690F8F3
:100720002400012807D0012084F824002046FFF788
:1007300079FD10B107E0022010BDA16A21F48851B3
:1007400041F00101A162002184F8241010BD0000D5
:1007500070B5044600F004F90546601C02D0044858
:100760000078044400F0FCF8401BA042FAD370BDAE
:10077000040000202DE9F84FDFF8B891002409F1BA
:10078000040A0AF1040B23460F270BF1040EC9E0FB
:100790000125A5402A40AA427DD1674ED1F804C068
:1007A000ACEB0608B44532D014DCBCF1030F3AD0F0
:1007B00009DCBCF1000F2AD0BCF1010F1CD0BCF148
:1007C000020F31D11DE0BCF1110F17D0BCF1120F97
:1007D0002AD119E0B8F5881F19D006DCB8F5803F9A
:1007E00015D0B8F5801F1FD111E0B8F5001F0ED04D
:1007F000B8F5041F18D10AE0CB6815E0CB681B1DC3
:1008000012E0CB6808330FE0CB680C330CE08B6848
:100810002BB1012B4FF0080303D0456104E0042302
:1008200002E0056100E00023FF2A01D8064601E04E
:1008300000F104064FEA840501D9A5F12005D6F898
:10084000008007FA05FC28EA0C0803FA05F548EAD7
:100850000508C6F800804D68ED0062D5374DAE69D9
:1008600046F00106AE61AD6924F0030605F001050E
:100870000095334D06EB050CDCF80850A607360F43
:1008800007FA06F825EA0805DFF8B880404503D1E5
:100890004FF0000817E044E0DFF8AC80404502D19B
:1008A0004FF001080FE0DFF8A480404502D14FF07F
:1008B000020808E0DFF89880404502D14FF00308B5
:1008C00001E04FF0040808FA06F848EA0508CCF8F9
:1008D00008804D68D9F80060ED034D4601D51643F8
:1008E00000E096432E604D68DAF80060AD0355468F
:1008F00001D5164300E096432E604D68DBF800609A
:10090000ED025D4601D5164300E096432E604D682A
:10091000DEF80060AD02754601D5164300E096434F
:100920002E60641C0D682A46E5407FF431AFBDE8B7
:10093000F88F000000040140000011100010024078
:100940000000014000080140000C0140001001407F
:10095000001401400AB1016170470904FBE700007F
:100960000148806870470000040000200248816848
:1009700002781144816070470400002010B5032004
:1009800000F066F8002000F005F800F023F80020E1
:1009900010BD000070B50D4D04464FF47A712878F3
:1009A000B1FBF0F00A490968B1FBF0F000F060FB20
:1009B00048B9102C07D200222146501E00F028F81A
:1009C00000206C6070BD012070BD0000040000209C
:1009D000100000200C4808B5816941F001018161D7
:1009E000816901F001010091C16941F08051C1614B
:1009F000C06900F0805000900448416821F0E06137
:100A000041F00071416008BD00100240000001404B
:100A1000F0B40E4B1B680C46C3F30223C3F1070569
:100A2000042D00D90425191D072901D2002300E057
:100A3000DB1E012606FA05F1491E214099409E4021
:100A4000761E16403143F0BC00F036BD0CED00E0E0
:100A5000064900F0070208684FF6FF03184040EA15
:100A60000220034A10430860704700000CED00E0CC
:100A70000000FA0510B501460020144C01290BD0E6
:100A8000022908D100F016F96168C1F38131491CCF
:100A90004900B0FBF1F010BD226AC2F30121012927
:100AA00003D1920701D5C80310BD022905D1626A9E
:100AB000920702D549F6404010BD0329FCD12168B8
:100AC0008903F9D54FF2244010BD00000010024008
:100AD0002DE9F84305460078314CC00754D0E06951
:100AE0000026C00008D4E06940F08050E061E06971
:100AF000012600F0805000902A480168C90512D4F0
:100B00000168804641F480710160FFF729FF0746C4
:100B100005E000BFFFF724FFC01B642823D8D8F8E6
:100B20000000C005F6D5206A10F4407021D0A988D5
:100B300001F4407181421CD0206A1B49012220F43B
:100B400040700A6000220A602062C00711D0FFF7DF
:100B500007FF074641F2883808E000BFFFF700FFB3
:100B6000C11B414502D90320BDE8F883206A8007F4
:100B7000F4D5206A696820F44070084320621EB1F1
:100B8000E06920F08050E0612878800705D5606832
:100B9000A96820F44040084360600020E4E70000BA
:100BA0000010024000700040400442422DE9F04134
:100BB000050027D02868334C810712D5400703D59C
:100BC000606840F4E06060602878000703D56068E2
:100BD00040F4605060606068A96820F0F00008434D
:100BE00060602878C00729D06868012804D021688F
:100BF000022804D0890703E02168890300E0890105
:100C0000002902DB0120BDE8F081616821F00301C9
:100C100001436160FFF7A4FE064641F2883706E013
:100C2000FFF79EFE801BB84201D90320EBE7606806
:100C3000696800F00C00B0EB810FF1D12878400713
:100C400005D56068E96820F4E060084360602878B2
:100C5000000706D56068296920F4605040EAC100A9
:100C6000606000F037F86168074AC1F30311515C16
:100C7000C8400649086006480068FFF78BFE002060
:100C8000C1E70000001002408C170008100000208F
:100C9000080000200448054900684968044AC1F377
:100CA0000221515CC8407047100000200010024033
:100CB0009C1700080448054900684968044AC1F3C4
:100CC000C221515CC8407047100000200010024053
:100CD0009C17000813A188B00FC98DE80F0015A15B
:100CE0000DF1100C0FC98CE80F00164A5168164818
:100CF00001F00C03042B10D0082B0ED1C1F3834359
:100D0000C9031DF803000AD5D16A04AA01F00F0136
:100D1000515C0D4A5043B0FBF1F008B070470B49ED
:100D20004843FAE702030405060708090A0B0C0DFD
:100D30000E0F10100102030405060708090A0B0C28
:100D40000D0E0F100010024000127A0000093D0045
:100D50002DE9F84F040070D02078C04DC00749D06D
:100D60006868C0F38100012807D06868C0F381007B
:100D7000022809D16868C00306D52868800339D5E0
:100D800060680028E7D035E06068B0F5803F0BD0A0
:100D900010B1B0F5A02F11D0286820F48030286061
:100DA000286820F4802002E0286840F48030286021
:100DB000606890B1FFF7D4FD06460AE0286840F469
:100DC00080202860F0E700BFFFF7CAFD801B642881
:100DD00073D828688003F7D50CE0FFF7C1FD0646FD
:100DE00005E000BFFFF7BCFD801B6428F0D8286831
:100DF0008003F7D420789A4E80074FF001094FF016
:100E0000000839D5686810F00C0F07D06868C0F387
:100E10008100022809D16868C00306D428688007C9
:100E200014D52069012808D110E02069B0B1C6F8B6
:100E30000090FFF795FD074605E00AE1FFF790FDFA
:100E4000C01B0228C4D828688007F7D528686169C4
:100E500020F0F80040EAC10028600DE0C6F80080EC
:100E6000FFF77EFD074604E0FFF77AFDC01B02286E
:100E700023D828688007F7D4207800072CD5794834
:100E8000A169D9B1C0F80090FFF76AFD074604E0F8
:100E9000FFF766FDC01B02280FD8686A8007F7D5E8
:100EA00071484FF4FA510068B0FBF1F0009000BFB8
:100EB0000098411E0091FAD20EE080E0C0F8008058
:100EC000FFF74EFD074604E0FFF74AFDC01B02286E
:100ED00075D8686A8007F7D42078400760D5E8693C
:100EE0000027C00008D4E86940F08050E861E86954
:100EF000012700F0805000905C480168C90513D4B8
:100F00000168834641F480710160FFF729FD824644
:100F100006E000BFFFF724FDA0EB0A0064284ED8CE
:100F2000DBF80000C005F5D5E06801280AD008B15B
:100F3000052813D0286A20F001002862286A20F0D2
:100F4000040002E0286A40F001002862E06841F2F3
:100F5000883B98B1FFF704FD82460BE0286A40F019
:100F600004002862EEE700BFFFF7FAFCA0EB0A01DD
:100F700059455AD8286A8007F6D50CE0FFF7F0FCEF
:100F8000824605E0FFF7ECFCA0EB0A0159454CD87E
:100F9000286A8007F6D41FB1E86920F08050E86124
:100FA000E06988B36968C1F38101022944D002284D
:100FB000C6F8608004D0FFF7D3FC044638E034E084
:100FC000FFF7CEFC074604E0FFF7CAFCC01B02286F
:100FD0002BD828688001F7D4206AB0F5803F05D16E
:100FE000E86AA16820F00F000843E862D4E908012C
:100FF0000843696821F4741108436860C6F860907A
:10100000FFF7AEFC044606E025E000BFFFF7A8FCB2
:10101000001B022809D828688001F7D51BE000BF13
:10102000FFF79EFC001B022802D90320BDE8F88FC1
:1010300028688001F4D40EE00128F7D06868226A9D
:1010400000F48031914204D1616A00F4701088424A
:1010500001D00120EAE70020E8E70000001002408C
:101060000000424280044242100000200070004014
:1010700010B5401EB0F1807F01D3012010BD4FF0AC
:10108000E02460610F21601700F016FA0020A061D3
:1010900007202061002010BD70B5040004D094F832
:1010A0003900002510B106E0012070BD84F83850E9
:1010B000204600F023F8242084F839002068C16815
:1010C00021F40051C160204600F020F92068016938
:1010D00021F4904101612068416921F02A014161B8
:1010E0002068C16841F40051C160E563202084F8A4
:1010F000390084F83A00002070BD000030B585B09A
:1011000000240094019402940394006814498842D6
:1011100023D11448C16941F40031C161C16901F4AE
:1011200000310491816941F00401816180690E4DB3
:1011300000F004000490042000900220019003209D
:10114000039069462846FFF715FB0820CDE9000407
:10115000694628460294FFF70DFB05B030BD00003C
:101160000044004000100240000801402DE9F8430F
:10117000044690F839001F4616460D4620284CD1EB
:10118000C5B1BEB194F83800012846D0012084F8DA
:1011900038004FF00008C4F83C80212084F8390062
:1011A000FFF7DEFBA6848146E684A068B0F5805F89
:1011B00003D004E00120BDE8F883206928B12E4661
:1011C0005FF0000584F838800EE00026FAE7802101
:1011D000204600F029F9A0B9AEB116F8010B21683C
:1011E0004860E08C401EE084E08C4B464FF00002EB
:1011F00000970028EBD14FF04001204600F014F991
:1012000030B10320D7E735F8020BC0F30800E6E75A
:10121000202084F839000020CDE70220CBE7FEE74C
:1012200070B586B000241848009401940294039489
:10123000816941F010018161816901F0100104911F
:10124000816941F020018161816901F020010491EF
:10125000816941F00401816180690C4E00F0040055
:101260004FF440750490002229463046FFF772FB88
:1012700001200095CDE90104022003906946304623
:10128000FFF778FA06B070BD001002400010014070
:10129000FEE7FEE770477047FFF768BB30B593B0D5
:1012A00028216846FEF75FFF14210AA8FEF75BFFBE
:1012B00000240F9401201194009002251094000442
:1012C0000795CDE90104CDE908046846FFF740FD24
:1012D00008B172B6FEE70F200A90CDE90B540D94C9
:1012E00000210AA80E94FFF761FC08B172B6FEE770
:1012F0004FF4804011900F950FA8FFF7E9FB0028ED
:1013000001D072B6FEE713B030BD70472DE9F04151
:10131000044600680169E26821F44051114301610B
:101320002169A068E26908436169114322680843A2
:10133000D16849F20C6399430143D1602068416947
:10134000A26921F440711143416136492068884205
:1013500002D1FFF7AFFC01E0FFF79CFC0246E36916
:1013600064203221B3F5004F02EBC20303EB0213FA
:1013700062682BD09200B3FBF2F5B5FBF0F5B3FB3E
:10138000F2F66FF018077D4306EB8505B3FBF2F626
:1013900001EB0515B5FBF0F5B6FBF0F605F0F00531
:1013A00005EB0615B3FBF2F6B3FBF2F2B2FBF0F27B
:1013B0007A4306EB820201EB0211B1FBF0F000F080
:1013C0000F00216828448860BDE8F0815200B3FB1B
:1013D000F2F6B6FBF0F6B3FBF2F7B3FBF2F56FF003
:1013E000180C06FB0CF607EB860601EBC606B5FBF0
:1013F000F0F5B6FBF0F62D0106F0F80605EB460514
:10140000B3FBF2F6B3FBF2F2B2FBF0F202FB0CF22A
:1014100006EB820201EBC201B1FBF0F000F0070025
:10142000CFE70000003801402DE9F041984617460B
:101430000E460446069D1DE0681C1BD02DB1FFF72B
:101440008FFAA0EB0800A84214D92068C16821F4E3
:10145000D071C1602068416921F001014161202003
:1014600084F8390084F83A00002084F8380003201A
:10147000BDE8F0812068006836EA000004D0002052
:10148000B842D9D00020F3E70120F9E7FEE70000D9
:101490000FB4084B10B504A902AA039800F02CF869
:1014A000044602A9002000F0D1F8204610BC5DF8E7
:1014B00014FB00004D1600080907090E002804DB84
:1014C00000F1E02080F80014704700F00F0000F1F8
:1014D000E02080F8141D704702E008C8121F08C100
:1014E000002AFAD170477047002001E001C1121FA5
:1014F000002AFBD1704700002DE9FF4F89B09B46C1
:101500000446002506E025280BD05A460B99904743
:10151000641C6D1C20780028F5D10DB02846BDE86C
:10152000F08F0027B8460122474900E0074314F82E
:10153000013F203B02FA03F00842F7D120782E2821
:1015400019D114F8010F47F004072A280ED06FF0C4
:101550002F022078A0F1300109290CD808EB88016E
:1015600002EB410100EB0108641CF2E70A98641CDD
:1015700050F8048B0A9020780028CED0642808D038
:10158000692806D075281ED05A460B9990476D1CC5
:1015900058E00A994FF00A0901C90A91002802DAB5
:1015A00040422D2102E0390504D52B218DF8201071
:1015B000012103E0F90704D02021F7E78A4608AEAD
:1015C0000DE00021FAE70A994FF00A0901C90A91D2
:1015D000F7E74946FEF7D9FD303106F8011D00282E
:1015E000F7D1ADEB060000F12009780701D44FF0E8
:1015F0000108C84502DDA8EB090000E00020804694
:10160000002706E008A85A46C05D0B9990476D1C5C
:101610007F1C5745F6DB04E030205A460B99904773
:101620006D1CB8F10001A8F10108F5DC05E016F821
:10163000010B5A460B9990476D1CB9F10001A9F1B5
:101640000109F4DC641C65E7092801000A68531CE1
:101650000B601070704700001FB5FFF78FF9FFF7A0
:101660001DFEFFF7DDFD43484149002401604FF4B2
:10167000E131C0E901140C21C460C0E90441846176
:10168000C461FFF709FD08B172B6FEE739483A496F
:101690003038016089158160047304754FF460214E
:1016A0004460C16102210161FEF79EFE08B172B67D
:1016B000FEE70094019402944FF47A762F4D039440
:1016C000FEF79EFD2B483038FEF7E0FF29483146F3
:1016D0003038FEF743FF27483038FEF781FE288078
:1016E00024483038FFF719F8FEF778FD21483038E4
:1016F000FEF7CCFF1F4831463038FEF72FFF1D485C
:101700003038FEF76DFE68801A483038FFF705F86C
:101710006A881BA16846FFF7BBFE2A8818A102A8A9
:10172000FFF7B6FE6846FEF729FD82B233466946EA
:101730001048FFF71BFD3346022212A10D48FFF7A8
:1017400015FD02A8FEF71AFD82B2334602A9094828
:10175000FFF70CFD334602220BA10648FFF706FDFA
:1017600000940194029464200394FEF7F1FFA7E72C
:1017700000440040440000200024014000000020FC
:1017800025640000202000000D0A00000000000079
:101790000000000001020304060708090000000021
:1017A00001020304C4170008000000201400000018
:1017B000D8140008D8170008140000207404000092
:1017C000E814000800000000010000001000000004
:0817D000000000000024F400F9
:0400000508000121CD
:00000001FF
